{
  "contractName": "HotelBooking",
  "abi": [
    {
      "inputs": [],
      "stateMutability": "nonpayable",
      "type": "constructor"
    },
    {
      "anonymous": false,
      "inputs": [
        {
          "indexed": false,
          "internalType": "uint256",
          "name": "bookingId",
          "type": "uint256"
        },
        {
          "indexed": false,
          "internalType": "address",
          "name": "customer",
          "type": "address"
        },
        {
          "indexed": false,
          "internalType": "uint256",
          "name": "refundAmount",
          "type": "uint256"
        }
      ],
      "name": "BookingCancelled",
      "type": "event"
    },
    {
      "anonymous": false,
      "inputs": [
        {
          "indexed": false,
          "internalType": "uint256",
          "name": "roomId",
          "type": "uint256"
        },
        {
          "indexed": false,
          "internalType": "address",
          "name": "customer",
          "type": "address"
        },
        {
          "indexed": false,
          "internalType": "uint256",
          "name": "checkInDate",
          "type": "uint256"
        },
        {
          "indexed": false,
          "internalType": "uint256",
          "name": "checkOutDate",
          "type": "uint256"
        }
      ],
      "name": "RoomBooked",
      "type": "event"
    },
    {
      "inputs": [
        {
          "internalType": "uint256",
          "name": "",
          "type": "uint256"
        }
      ],
      "name": "bookings",
      "outputs": [
        {
          "internalType": "address",
          "name": "customer",
          "type": "address"
        },
        {
          "internalType": "uint256",
          "name": "roomId",
          "type": "uint256"
        },
        {
          "internalType": "uint256",
          "name": "checkInDate",
          "type": "uint256"
        },
        {
          "internalType": "uint256",
          "name": "checkOutDate",
          "type": "uint256"
        },
        {
          "internalType": "uint256",
          "name": "bookingTime",
          "type": "uint256"
        },
        {
          "internalType": "bool",
          "name": "isCancelled",
          "type": "bool"
        }
      ],
      "stateMutability": "view",
      "type": "function",
      "constant": true
    },
    {
      "inputs": [],
      "name": "owner",
      "outputs": [
        {
          "internalType": "address",
          "name": "",
          "type": "address"
        }
      ],
      "stateMutability": "view",
      "type": "function",
      "constant": true
    },
    {
      "inputs": [
        {
          "internalType": "uint256",
          "name": "",
          "type": "uint256"
        }
      ],
      "name": "roomBookings",
      "outputs": [
        {
          "internalType": "address",
          "name": "customer",
          "type": "address"
        },
        {
          "internalType": "uint256",
          "name": "roomId",
          "type": "uint256"
        },
        {
          "internalType": "uint256",
          "name": "checkInDate",
          "type": "uint256"
        },
        {
          "internalType": "uint256",
          "name": "checkOutDate",
          "type": "uint256"
        },
        {
          "internalType": "uint256",
          "name": "bookingTime",
          "type": "uint256"
        },
        {
          "internalType": "bool",
          "name": "isCancelled",
          "type": "bool"
        }
      ],
      "stateMutability": "view",
      "type": "function",
      "constant": true
    },
    {
      "inputs": [
        {
          "internalType": "uint256",
          "name": "",
          "type": "uint256"
        }
      ],
      "name": "rooms",
      "outputs": [
        {
          "internalType": "uint256",
          "name": "id",
          "type": "uint256"
        },
        {
          "internalType": "string",
          "name": "name",
          "type": "string"
        },
        {
          "internalType": "uint256",
          "name": "price",
          "type": "uint256"
        },
        {
          "internalType": "bool",
          "name": "isBooked",
          "type": "bool"
        }
      ],
      "stateMutability": "view",
      "type": "function",
      "constant": true
    },
    {
      "inputs": [
        {
          "internalType": "string",
          "name": "_name",
          "type": "string"
        },
        {
          "internalType": "uint256",
          "name": "_price",
          "type": "uint256"
        }
      ],
      "name": "addRoom",
      "outputs": [],
      "stateMutability": "nonpayable",
      "type": "function"
    },
    {
      "inputs": [
        {
          "internalType": "uint256",
          "name": "_roomId",
          "type": "uint256"
        },
        {
          "internalType": "uint256",
          "name": "_checkInDate",
          "type": "uint256"
        },
        {
          "internalType": "uint256",
          "name": "_checkOutDate",
          "type": "uint256"
        }
      ],
      "name": "bookRoom",
      "outputs": [],
      "stateMutability": "payable",
      "type": "function",
      "payable": true
    },
    {
      "inputs": [
        {
          "internalType": "uint256",
          "name": "_roomId",
          "type": "uint256"
        }
      ],
      "name": "cancelBooking",
      "outputs": [],
      "stateMutability": "nonpayable",
      "type": "function"
    },
    {
      "inputs": [],
      "name": "getRooms",
      "outputs": [
        {
          "components": [
            {
              "internalType": "uint256",
              "name": "id",
              "type": "uint256"
            },
            {
              "internalType": "string",
              "name": "name",
              "type": "string"
            },
            {
              "internalType": "uint256",
              "name": "price",
              "type": "uint256"
            },
            {
              "internalType": "bool",
              "name": "isBooked",
              "type": "bool"
            }
          ],
          "internalType": "struct HotelBooking.Room[]",
          "name": "",
          "type": "tuple[]"
        }
      ],
      "stateMutability": "view",
      "type": "function",
      "constant": true
    },
    {
      "inputs": [],
      "name": "getBookings",
      "outputs": [
        {
          "components": [
            {
              "internalType": "address",
              "name": "customer",
              "type": "address"
            },
            {
              "internalType": "uint256",
              "name": "roomId",
              "type": "uint256"
            },
            {
              "internalType": "uint256",
              "name": "checkInDate",
              "type": "uint256"
            },
            {
              "internalType": "uint256",
              "name": "checkOutDate",
              "type": "uint256"
            },
            {
              "internalType": "uint256",
              "name": "bookingTime",
              "type": "uint256"
            },
            {
              "internalType": "bool",
              "name": "isCancelled",
              "type": "bool"
            }
          ],
          "internalType": "struct HotelBooking.Booking[]",
          "name": "",
          "type": "tuple[]"
        }
      ],
      "stateMutability": "view",
      "type": "function",
      "constant": true
    }
  ],
  "bytecode": "0x608060405234801561001057600080fd5b50336000806101000a81548173ffffffffffffffffffffffffffffffffffffffff021916908373ffffffffffffffffffffffffffffffffffffffff160217905550611b2a806100606000396000f3fe6080604052600436106100865760003560e01c80634bde3ab1116100595780634bde3ab1146101525780638da5cb5b1461017b578063955c8420146101a6578063d08f6a6b146101d1578063da7166cc146101fc57610086565b80630dca825e1461008b5780631358646e146100b45780631bae0ac8146100d05780631dab301e14610110575b600080fd5b34801561009757600080fd5b506100b260048036038101906100ad9190610f10565b61023e565b005b6100ce60048036038101906100c99190610f3d565b610431565b005b3480156100dc57600080fd5b506100f760048036038101906100f29190610f10565b6107d2565b6040516101079493929190611053565b60405180910390f35b34801561011c57600080fd5b5061013760048036038101906101329190610f10565b6108a7565b604051610149969594939291906110e0565b60405180910390f35b34801561015e57600080fd5b5061017960048036038101906101749190611276565b610920565b005b34801561018757600080fd5b50610190610a5f565b60405161019d91906112d2565b60405180910390f35b3480156101b257600080fd5b506101bb610a83565b6040516101c89190611444565b60405180910390f35b3480156101dd57600080fd5b506101e6610b7b565b6040516101f391906115d5565b60405180910390f35b34801561020857600080fd5b50610223600480360381019061021e9190610f10565b610c9b565b604051610235969594939291906110e0565b60405180910390f35b60006003600083815260200190815260200160002090503373ffffffffffffffffffffffffffffffffffffffff168160000160009054906101000a900473ffffffffffffffffffffffffffffffffffffffff1673ffffffffffffffffffffffffffffffffffffffff16146102e7576040517f08c379a00000000000000000000000000000000000000000000000000000000081526004016102de90611669565b60405180910390fd5b8060050160009054906101000a900460ff1615610339576040517f08c379a0000000000000000000000000000000000000000000000000000000008152600401610330906116d5565b60405180910390fd5b600061034d82600401548360010154610d04565b905060018260050160006101000a81548160ff021916908315150217905550600060018481548110610382576103816116f5565b5b906000526020600020906004020160030160006101000a81548160ff0219169083151502179055503373ffffffffffffffffffffffffffffffffffffffff166108fc829081150290604051600060405180830381858888f193505050501580156103f0573d6000803e3d6000fd5b507f1b6cb622ce03beaf3e0c44cb4253af7c70bb84b7e3711229b33cc2ec4c613c8e83338360405161042493929190611724565b60405180910390a1505050565b6001805490508310610478576040517f08c379a000000000000000000000000000000000000000000000000000000000815260040161046f906117a7565b60405180910390fd5b6001838154811061048c5761048b6116f5565b5b906000526020600020906004020160030160009054906101000a900460ff16156104eb576040517f08c379a00000000000000000000000000000000000000000000000000000000081526004016104e290611813565b60405180910390fd5b600183815481106104ff576104fe6116f5565b5b9060005260206000209060040201600201543414610552576040517f08c379a00000000000000000000000000000000000000000000000000000000081526004016105499061187f565b60405180910390fd5b6001808481548110610567576105666116f5565b5b906000526020600020906004020160030160006101000a81548160ff0219169083151502179055506000600280549050905060026040518060c001604052803373ffffffffffffffffffffffffffffffffffffffff16815260200186815260200185815260200184815260200142815260200160001515815250908060018154018082558091505060019003906000526020600020906006020160009091909190915060008201518160000160006101000a81548173ffffffffffffffffffffffffffffffffffffffff021916908373ffffffffffffffffffffffffffffffffffffffff1602179055506020820151816001015560408201518160020155606082015181600301556080820151816004015560a08201518160050160006101000a81548160ff0219169083151502179055505050600281815481106106af576106ae6116f5565b5b9060005260206000209060060201600360008681526020019081526020016000206000820160009054906101000a900473ffffffffffffffffffffffffffffffffffffffff168160000160006101000a81548173ffffffffffffffffffffffffffffffffffffffff021916908373ffffffffffffffffffffffffffffffffffffffff160217905550600182015481600101556002820154816002015560038201548160030155600482015481600401556005820160009054906101000a900460ff168160050160006101000a81548160ff0219169083151502179055509050507f414e8daa25ba8dde6e691876495db5da793781eed1794da14679b2af00301df6843385856040516107c4949392919061189f565b60405180910390a150505050565b600181815481106107e257600080fd5b906000526020600020906004020160009150905080600001549080600101805461080b90611913565b80601f016020809104026020016040519081016040528092919081815260200182805461083790611913565b80156108845780601f1061085957610100808354040283529160200191610884565b820191906000526020600020905b81548152906001019060200180831161086757829003601f168201915b5050505050908060020154908060030160009054906101000a900460ff16905084565b600281815481106108b757600080fd5b90600052602060002090600602016000915090508060000160009054906101000a900473ffffffffffffffffffffffffffffffffffffffff16908060010154908060020154908060030154908060040154908060050160009054906101000a900460ff16905086565b60008054906101000a900473ffffffffffffffffffffffffffffffffffffffff1673ffffffffffffffffffffffffffffffffffffffff163373ffffffffffffffffffffffffffffffffffffffff16146109ae576040517f08c379a00000000000000000000000000000000000000000000000000000000081526004016109a5906119b7565b60405180910390fd5b6000600180549050905060016040518060800160405280838152602001858152602001848152602001600015158152509080600181540180825580915050600190039060005260206000209060040201600090919091909150600082015181600001556020820151816001019080519060200190610a2d929190610e23565b506040820151816002015560608201518160030160006101000a81548160ff0219169083151502179055505050505050565b60008054906101000a900473ffffffffffffffffffffffffffffffffffffffff1681565b60606002805480602002602001604051908101604052809291908181526020016000905b82821015610b7257838290600052602060002090600602016040518060c00160405290816000820160009054906101000a900473ffffffffffffffffffffffffffffffffffffffff1673ffffffffffffffffffffffffffffffffffffffff1673ffffffffffffffffffffffffffffffffffffffff168152602001600182015481526020016002820154815260200160038201548152602001600482015481526020016005820160009054906101000a900460ff16151515158152505081526020019060010190610aa7565b50505050905090565b60606001805480602002602001604051908101604052809291908181526020016000905b82821015610c92578382906000526020600020906004020160405180608001604052908160008201548152602001600182018054610bdc90611913565b80601f0160208091040260200160405190810160405280929190818152602001828054610c0890611913565b8015610c555780601f10610c2a57610100808354040283529160200191610c55565b820191906000526020600020905b815481529060010190602001808311610c3857829003601f168201915b50505050508152602001600282015481526020016003820160009054906101000a900460ff16151515158152505081526020019060010190610b9f565b50505050905090565b60036020528060005260406000206000915090508060000160009054906101000a900473ffffffffffffffffffffffffffffffffffffffff16908060010154908060020154908060030154908060040154908060050160009054906101000a900460ff16905086565b6000808342610d139190611a06565b9050600060018481548110610d2b57610d2a6116f5565b5b9060005260206000209060040201600201549050603c821015610d695760648082610d569190611a3a565b610d609190611ac3565b92505050610e1d565b6078821015610d94576064605a82610d819190611a3a565b610d8b9190611ac3565b92505050610e1d565b60b4821015610dbf576064605082610dac9190611a3a565b610db69190611ac3565b92505050610e1d565b60f0821015610dea576064604682610dd79190611a3a565b610de19190611ac3565b92505050610e1d565b61012c821015610e16576064603c82610e039190611a3a565b610e0d9190611ac3565b92505050610e1d565b6000925050505b92915050565b828054610e2f90611913565b90600052602060002090601f016020900481019282610e515760008555610e98565b82601f10610e6a57805160ff1916838001178555610e98565b82800160010185558215610e98579182015b82811115610e97578251825591602001919060010190610e7c565b5b509050610ea59190610ea9565b5090565b5b80821115610ec2576000816000905550600101610eaa565b5090565b6000604051905090565b600080fd5b600080fd5b6000819050919050565b610eed81610eda565b8114610ef857600080fd5b50565b600081359050610f0a81610ee4565b92915050565b600060208284031215610f2657610f25610ed0565b5b6000610f3484828501610efb565b91505092915050565b600080600060608486031215610f5657610f55610ed0565b5b6000610f6486828701610efb565b9350506020610f7586828701610efb565b9250506040610f8686828701610efb565b9150509250925092565b610f9981610eda565b82525050565b600081519050919050565b600082825260208201905092915050565b60005b83811015610fd9578082015181840152602081019050610fbe565b83811115610fe8576000848401525b50505050565b6000601f19601f8301169050919050565b600061100a82610f9f565b6110148185610faa565b9350611024818560208601610fbb565b61102d81610fee565b840191505092915050565b60008115159050919050565b61104d81611038565b82525050565b60006080820190506110686000830187610f90565b818103602083015261107a8186610fff565b90506110896040830185610f90565b6110966060830184611044565b95945050505050565b600073ffffffffffffffffffffffffffffffffffffffff82169050919050565b60006110ca8261109f565b9050919050565b6110da816110bf565b82525050565b600060c0820190506110f560008301896110d1565b6111026020830188610f90565b61110f6040830187610f90565b61111c6060830186610f90565b6111296080830185610f90565b61113660a0830184611044565b979650505050505050565b600080fd5b600080fd5b7f4e487b7100000000000000000000000000000000000000000000000000000000600052604160045260246000fd5b61118382610fee565b810181811067ffffffffffffffff821117156111a2576111a161114b565b5b80604052505050565b60006111b5610ec6565b90506111c1828261117a565b919050565b600067ffffffffffffffff8211156111e1576111e061114b565b5b6111ea82610fee565b9050602081019050919050565b82818337600083830152505050565b6000611219611214846111c6565b6111ab565b90508281526020810184848401111561123557611234611146565b5b6112408482856111f7565b509392505050565b600082601f83011261125d5761125c611141565b5b813561126d848260208601611206565b91505092915050565b6000806040838503121561128d5761128c610ed0565b5b600083013567ffffffffffffffff8111156112ab576112aa610ed5565b5b6112b785828601611248565b92505060206112c885828601610efb565b9150509250929050565b60006020820190506112e760008301846110d1565b92915050565b600081519050919050565b600082825260208201905092915050565b6000819050602082019050919050565b611322816110bf565b82525050565b61133181610eda565b82525050565b61134081611038565b82525050565b60c08201600082015161135c6000850182611319565b50602082015161136f6020850182611328565b5060408201516113826040850182611328565b5060608201516113956060850182611328565b5060808201516113a86080850182611328565b5060a08201516113bb60a0850182611337565b50505050565b60006113cd8383611346565b60c08301905092915050565b6000602082019050919050565b60006113f1826112ed565b6113fb81856112f8565b935061140683611309565b8060005b8381101561143757815161141e88826113c1565b9750611429836113d9565b92505060018101905061140a565b5085935050505092915050565b6000602082019050818103600083015261145e81846113e6565b905092915050565b600081519050919050565b600082825260208201905092915050565b6000819050602082019050919050565b600082825260208201905092915050565b60006114ae82610f9f565b6114b88185611492565b93506114c8818560208601610fbb565b6114d181610fee565b840191505092915050565b60006080830160008301516114f46000860182611328565b506020830151848203602086015261150c82826114a3565b91505060408301516115216040860182611328565b5060608301516115346060860182611337565b508091505092915050565b600061154b83836114dc565b905092915050565b6000602082019050919050565b600061156b82611466565b6115758185611471565b93508360208202850161158785611482565b8060005b858110156115c357848403895281516115a4858261153f565b94506115af83611553565b925060208a0199505060018101905061158b565b50829750879550505050505092915050565b600060208201905081810360008301526115ef8184611560565b905092915050565b7f4f6e6c792074686520637573746f6d65722063616e2063616e63656c2074686560008201527f20626f6f6b696e67000000000000000000000000000000000000000000000000602082015250565b6000611653602883610faa565b915061165e826115f7565b604082019050919050565b6000602082019050818103600083015261168281611646565b9050919050565b7f426f6f6b696e6720697320616c72656164792063616e63656c6c656400000000600082015250565b60006116bf601c83610faa565b91506116ca82611689565b602082019050919050565b600060208201905081810360008301526116ee816116b2565b9050919050565b7f4e487b7100000000000000000000000000000000000000000000000000000000600052603260045260246000fd5b60006060820190506117396000830186610f90565b61174660208301856110d1565b6117536040830184610f90565b949350505050565b7f496e76616c696420726f6f6d2069640000000000000000000000000000000000600082015250565b6000611791600f83610faa565b915061179c8261175b565b602082019050919050565b600060208201905081810360008301526117c081611784565b9050919050565b7f526f6f6d20697320616c726561647920626f6f6b656400000000000000000000600082015250565b60006117fd601683610faa565b9150611808826117c7565b602082019050919050565b6000602082019050818103600083015261182c816117f0565b9050919050565b7f496e636f72726563742045746865722073656e74000000000000000000000000600082015250565b6000611869601483610faa565b915061187482611833565b602082019050919050565b600060208201905081810360008301526118988161185c565b9050919050565b60006080820190506118b46000830187610f90565b6118c160208301866110d1565b6118ce6040830185610f90565b6118db6060830184610f90565b95945050505050565b7f4e487b7100000000000000000000000000000000000000000000000000000000600052602260045260246000fd5b6000600282049050600182168061192b57607f821691505b6020821081141561193f5761193e6118e4565b5b50919050565b7f4f6e6c7920746865206f776e65722063616e20706572666f726d20746869732060008201527f616374696f6e0000000000000000000000000000000000000000000000000000602082015250565b60006119a1602683610faa565b91506119ac82611945565b604082019050919050565b600060208201905081810360008301526119d081611994565b9050919050565b7f4e487b7100000000000000000000000000000000000000000000000000000000600052601160045260246000fd5b6000611a1182610eda565b9150611a1c83610eda565b925082821015611a2f57611a2e6119d7565b5b828203905092915050565b6000611a4582610eda565b9150611a5083610eda565b9250817fffffffffffffffffffffffffffffffffffffffffffffffffffffffffffffffff0483118215151615611a8957611a886119d7565b5b828202905092915050565b7f4e487b7100000000000000000000000000000000000000000000000000000000600052601260045260246000fd5b6000611ace82610eda565b9150611ad983610eda565b925082611ae957611ae8611a94565b5b82820490509291505056fea26469706673582212201527b751fa5f3ab7ad23de9d050cd06d8f335367a63ae94d2fd34080a4aab70464736f6c634300080a0033",
  "immutableReferences": {},
  "source": "// SPDX-License-Identifier: MIT\r\npragma solidity ^0.8.10;\r\n\r\ncontract HotelBooking {\r\n    struct Room {\r\n        uint id;\r\n        string name;\r\n        uint price;\r\n        bool isBooked;\r\n    }\r\n\r\n    struct Booking {\r\n        address customer;\r\n        uint roomId;\r\n        uint checkInDate;\r\n        uint checkOutDate;\r\n        uint bookingTime;\r\n        bool isCancelled;\r\n    }\r\n\r\n    address public owner;\r\n    Room[] public rooms;\r\n    Booking[] public bookings;\r\n\r\n    mapping(uint => Booking) public roomBookings;\r\n\r\n    event RoomBooked(uint roomId, address customer, uint checkInDate, uint checkOutDate);\r\n    event BookingCancelled(uint bookingId, address customer, uint refundAmount);\r\n\r\n    constructor() {\r\n        owner = msg.sender;\r\n    }\r\n\r\n    modifier onlyOwner() {\r\n        require(msg.sender == owner, \"Only the owner can perform this action\");\r\n        _;\r\n    }\r\n\r\n    function addRoom(string memory _name, uint _price) public onlyOwner {\r\n        uint roomId = rooms.length;\r\n        rooms.push(Room(roomId, _name, _price, false));\r\n    }\r\n\r\n    function bookRoom(uint _roomId, uint _checkInDate, uint _checkOutDate) public payable {\r\n        require(_roomId < rooms.length, \"Invalid room id\");\r\n        require(!rooms[_roomId].isBooked, \"Room is already booked\");\r\n        require(msg.value == rooms[_roomId].price, \"Incorrect Ether sent\");\r\n\r\n        rooms[_roomId].isBooked = true;\r\n        uint bookingId = bookings.length;\r\n        bookings.push(Booking(msg.sender, _roomId, _checkInDate, _checkOutDate, block.timestamp, false));\r\n        roomBookings[_roomId] = bookings[bookingId];\r\n\r\n        emit RoomBooked(_roomId, msg.sender, _checkInDate, _checkOutDate);\r\n    }\r\n\r\n    function cancelBooking(uint _roomId) public {\r\n        Booking storage booking = roomBookings[_roomId];\r\n        require(booking.customer == msg.sender, \"Only the customer can cancel the booking\");\r\n        require(!booking.isCancelled, \"Booking is already cancelled\");\r\n\r\n        uint refundAmount = calculateRefund(booking.bookingTime, booking.roomId);\r\n        booking.isCancelled = true;\r\n        rooms[_roomId].isBooked = false;\r\n\r\n        payable(msg.sender).transfer(refundAmount);\r\n        emit BookingCancelled(_roomId, msg.sender, refundAmount);\r\n    }\r\n\r\n    function calculateRefund(uint bookingTime, uint roomId) internal view returns (uint) {\r\n        uint elapsed = block.timestamp - bookingTime;\r\n        uint price = rooms[roomId].price;\r\n\r\n        if (elapsed < 1 minutes) {\r\n            return price * 100 / 100; // 100% refund\r\n        } else if (elapsed < 2 minutes) {\r\n            return price * 90 / 100; // 90% refund\r\n        } else if (elapsed < 3 minutes) {\r\n            return price * 80 / 100; // 80% refund\r\n        } else if (elapsed < 4 minutes) {\r\n            return price * 70 / 100; // 70% refund\r\n        } else if (elapsed < 5 minutes) {\r\n            return price * 60 / 100; // 60% refund\r\n        } else {\r\n            return 0; // No refund after 5 minutes\r\n        }\r\n    }\r\n\r\n    function getRooms() public view returns (Room[] memory) {\r\n        return rooms;\r\n    }\r\n\r\n    function getBookings() public view returns (Booking[] memory) {\r\n        return bookings;\r\n    }\r\n}\r\n",
  "sourcePath": "C:\\Users\\llo18\\hotel-booking\\contracts\\HotelBooking.sol",
  "compiler": {
    "name": "solc",
    "version": "0.8.10+commit.fc410830.Emscripten.clang"
  },
  "schemaVersion": "3.4.16",
  "updatedAt": "2024-05-28T00:23:51.499Z",
  "networkType": "ethereum",
  "devdoc": {
    "kind": "dev",
    "methods": {},
    "version": 1
  },
  "userdoc": {
    "kind": "user",
    "methods": {},
    "version": 1
  }
}